:100000000C94E7000C940F010C940F010C940F0159
:100010000C940F010C940F010C940F010C940F0120
:100020000C940F010C940F010C94FD090C94910891
:100030000C940F010C940F010C940F010C940F0100
:100040000C940F010C940F010C940F010C940F01F0
:100050000C940F010C940F010C940F010C94860A60
:100060000C940F010C940F010C940F010C940F01D0
:100070000C940F010C940F010C940F010C940F01C0
:100080000C940F010C940F010C940F010C940F01B0
:100090000C944E0E0C940F010C940F010C940F0154
:1000A0000C940F010C940F010C940F01AB0BAE0BD1
:1000B0009D0BA10BA70BCF0BCF0BCF0BB20BB60B2E
:1000C000BA0BC00BC40BCF0BCA0B080B0002020209
:1000D00000000904000001020200000524001001D4
:1000E0000524010101042402060524060001070578
:1000F000810310004009040100020A000000070506
:1001000002024000000705830240000012010002C5
:10011000EF0201409A230D800001010203014164B6
:100120006166727569740049747379426974737990
:10013000203332753420335620384D487A0004037A
:1001400009040000000200090F0000030401000C74
:10015000000000000000000000000000000000009F
:1001600000040802011040804010204080408008B8
:100170000204018040201002011080102040402025
:10018000040404040403040502020202040302023C
:100190000202060606060606040402020204040021
:1001A0000000002300260029002C002F0000000082
:1001B00000250028002B002E003100000000002444
:1001C0000027002A002D003000004D055B0D112492
:1001D0001FBECFEFDAE0DEBFCDBF11E0A0E0B1E09F
:1001E000EAE4F5E202C005900D92A839B107D9F70B
:1001F00023E0A8E9B1E001C01D92A33DB207E1F7F9
:1002000010E0C7EED0E004C02197FE010E949D0FD0
:10021000C53ED107C9F70E9463050C94A3120C9444
:1002200000000C945612DC01ED91FC910190F081DC
:10023000E02D09944F925F926F927F928F929F92DE
:10024000AF92BF92CF92DF92EF92FF92CF93DF9364
:10025000EC0185E090E00E94110128EE33E0482F88
:10026000429FC001439F900D11244C01990FAA0891
:10027000BB080E94D00A2B013C01CC0FDD1FC45BE0
:10028000DE4F0E94D00A6B017C0188810E943B0CEA
:10029000892B79F062E370E080E090E00E94010B2E
:1002A000C418D508E608F708C814D904EA04FB0402
:1002B00040F3DF91CF91FF90EF90DF90CF90BF9010
:1002C000AF909F908F907F906F905F904F90089528
:1002D000CF92DF92EF92FF920F931F93CF93DF9312
:1002E0007C0100E010E0C0E0D0E0F7018191919145
:1002F0007F018336910519F00E943B0C06C08CB13A
:1003000082FBCC24C0F8D12CC601002E02C0880F7D
:10031000991F0A94E2F7C82BD92B0F5F1F4F0430A7
:10032000110519F7CE01DF91CF911F910F91FF9029
:10033000EF90DF90CF9008958336910511F00C94E3
:100340000C0C8CB1672B11F472980895729A089571
:100350008F929F92AF92BF92CF92DF92EF92FF92D5
:100360000F931F93CF93DF9361E086E10E94D00B40
:1003700061E087E10E94D00B60E08BE00E94D00B2F
:1003800060E087E00E94D00B6A9A61E086E10E94FB
:100390000C0C61E087E10E940C0C8CE5E82E81E0FA
:1003A000F82E04E511E09CE4A92E91E0B92EE701B6
:1003B0008880C980229661E0882D0E94D00BD801E8
:1003C0009C901196DC900E5F1F4F61E0892D0E947A
:1003D000D00BF5018081F2E0AF0EB11C60E00E940D
:1003E000D00B60E070E0882D9C2D0E949C0160E0A5
:1003F00070E0892D9D2D0E949C0121E0C436D2071A
:10040000B9F687E00E943B0C019761F08BE00E94F7
:100410003B0C019751F080E090E00E941101682FA1
:1004200070E005C060E370E002C065E170E084E068
:1004300093E00E944F0D81E090E00E941101082F8F
:1004400010E083E090E00E94110134E1839FC0013D
:100450001124C0E0D0E04C01990FAA08BB08C801E4
:100460000C2E02C0969587950A94E2F780FF0BC088
:1004700061E070E0F701808191810E949C01C501DB
:10048000B4010E94010B2196F2E0EF0EF11CC43082
:10049000D10529F710929F0180E091E0E0EAF1E0B8
:1004A000DF019C011D9221503040E1F76FE973E0BC
:1004B00084E093E00E94510D66E074E084E093E0F4
:1004C0000E94560D40E855E260E070E080EA92E05C
:1004D0000E94470560E087E1DF91CF911F910F9166
:1004E000FF90EF90DF90CF90BF90AF909F908F9054
:1004F0000C940C0CCF92DF92EF92FF920F931F930C
:10050000CF93DF93C0976C014AE050E0BC0180EAD2
:1005100092E00E94F4058CE5E82E81E0F82EC0E020
:10052000D0E086010C2E02C0169507950A94E2F7DA
:10053000017011274AE050E0B80180EA92E00E9481
:100540005506B801F701819191917F010E949C01AC
:100550002196C430D10529F7DF91CF911F910F91DA
:10056000FF90EF90DF90CF9008950F931F93CF935C
:100570008C0184E090E00E941101C82F000F111F30
:10058000F801EC5AFE4F0081118161E070E0C80172
:100590000E949C0184E1C89FB0011124072E000C29
:1005A000880B990B0E94010B60E070E0C801CF91AD
:1005B0001F910F910C949C01880F991FFC01E45A24
:1005C000FE4F60E070E0808191810C949C010F935C
:1005D0001F93CF93DF938C0181E080939C01C0E057
:1005E000D0E0C8010C2E02C0969587950A94E2F7D8
:1005F00080FF09C0CE010E94B502CE010E941A01FF
:10060000CE010E94DC022196C430D10551F7109230
:100610009C01DF91CF911F910F9108950F931F932C
:10062000CF93DF938091A10190E08132910549F44D
:100630008091A20190E0DF91CF911F910F910C94D6
:100640007A028332910549F48091A20190E0DF9112
:10065000CF911F910F910C94E70284329105B1F470
:100660000091A20110E0C0E0D0E0C8010C2E02C051
:10067000969587950A94E2F780FF03C0CE010E9409
:10068000B5022196C430D10581F71FC08735910589
:1006900091F48091A2016091A301811105C068309D
:1006A000A0F080E090E001C090E0DF91CF911F9139
:1006B0000F910C945E128235910539F48091A2015C
:1006C00090E090939E0180939D01DF91CF911F91C7
:1006D0000F9108950F931F9380919F01882391F0AC
:1006E00061E087E10E940C0C0E94D00A609398019F
:1006F0007093990180939A0190939B010E940E033D
:1007000010929F010E94D00A0091980110919901C6
:1007100020919A0130919B01DC01CB01801B910B50
:10072000A20BB30B4497A105B10530F060E087E15F
:100730001F910F910C940C0C1F910F910895AF9283
:10074000BF92CF92DF92EF92FF920F931F93CF93BE
:10075000DF93CDB7DEB7C456D1090FB6F894DEBF2C
:100760000FBECDBF7C0180E091E0E0EAF1E0DF0167
:100770009C011D9221503040E1F700E010E083E140
:10078000C82E81E0D82ECE0101965C010E151F0502
:100790004CF584E093E00F3F110509F004F50E9449
:1007A0006C0CF801E056FE4F808399279F938F933E
:1007B0009F938F93FF93EF93DF92CF92BF92AF926D
:1007C0000E94A30FB50180EA92E00E948B050F5FA3
:1007D0001F4F0FB6F894DEBF0FBECDBFD7CF0E941C
:1007E0006C0CD4CFE0929F01CC59DF4F0FB6F89438
:1007F000DEBF0FBECDBFDF91CF911F910F91FF9054
:10080000EF90DF90CF90BF90AF90089561E087E1C7
:100810000E940C0C80919D0190919E018038910561
:1008200044F40E941101682F84E093E00E94F30CCD
:100830001CC08038910519F48CE491E005C0813822
:10084000910531F48CE591E00E946801BC0109C07A
:100850008238910521F460919C0170E002C060E053
:1008600070E084E093E00E94130162E370E080E0B6
:1008700090E00E94010B60E087E10C940C0C80E09A
:1008800090E00895CF93DF931F92CDB7DEB76983D1
:10089000DC01ED91FC910280F381E02D41E050E01C
:1008A000BE016F5F7F4F09950F90DF91CF91089543
:1008B000CF93DF93EC018C859D8597FF05C082E087
:1008C0000E945F079D878C878C859D85DF91CF91E6
:1008D000089583E00E94760790E0089583E00C94E9
:1008E000F309FC018485958597FD06C082E00E948E
:1008F0000B0790E00196089582E00E940B0790E0BC
:100900000895FC018485958597FD05C02FEF3FEF85
:1009100035872487089582E00C945F07CF93DF9397
:10092000EC0180910B01882331F083E00E94900755
:100930001816190634F081E090E09B838A8380E0EA
:1009400090E0DF91CF910895EEEFFFE7259134918C
:1009500081E02B3F3C4D09F080E00895FC0190813F
:100960009E5F908342E450E06AEC70E080E80C9473
:100970003F08FC0181819081913A59F4813209F05C
:1009800065C047E050E064E071E080E00E943F080D
:100990005BC0913209F05AC0833269F4828193813D
:1009A000A0E0B0E08093000190930101A0930201C8
:1009B000B093030149C0803239F467E070E084E00D
:1009C00091E00E94660840C0823209F03DC08281F9
:1009D00080930B010E94A404882319F0EEEFFAE043
:1009E00002C0E0E0F8E08091040190910501A0913F
:1009F0000601B0910701803B9440A105B10541F586
:100A000080910B0180FD24C0EE3F8AE0F80751F091
:100A100080819181873727E7920721F09093FF0A21
:100A20008093FE0A87E797E7918380838091600037
:100A30008093F0029BE088E10FB6F894A89580932C
:100A400060000FBE9093600081E0089580E00895FB
:100A50008081918187379747B9F7A8958091600089
:100A60008861809360008091F00280936000EE3F87
:100A70008AE0F80739F08091FE0A9091FF0A91838D
:100A80008083E2CF1092FF0A1092FE0ADDCF2FEF93
:100A90003FEFFC01358724870895E0EAF2E01382F6
:100AA000128288EE93E0A0E0B0E084839583A68371
:100AB000B78388E691E0918380838FEF9FEF9587DE
:100AC0008487089508950E943D0B0E94620581EF7E
:100AD00092E00E94750A0E94A801C0E0D0E00E9446
:100AE0006A032097E1F30E940000F9CF61157105B8
:100AF00079F0FB0101900020E9F73197AF01461B27
:100B0000570BDC01ED91FC910280F381E02D0994FB
:100B100080E090E008950C947605DC01ED91FC9165
:100B20000190F081E02D099466E771E00C94760560
:100B30008F929F92AF92BF92EF92FF920F931F936B
:100B4000CF93DF93CDB7DEB7A1970FB6F894DEBF92
:100B50000FBECDBF7C01FA01CB0119A2223008F4EF
:100B60002AE08E010F5D1F4F822E912CA12CB12CFB
:100B7000BF01A50194010E947B0FF901CA01015038
:100B800011096A3010F4605D01C0695CD8016C9392
:100B9000232B242B252B61F7B801C7010E94760572
:100BA000A1960FB6F894DEBF0FBECDBFDF91CF91F7
:100BB0001F910F91FF90EF90BF90AF909F908F90FB
:100BC00008952115310541F4DC01ED91FC9101906E
:100BD000F081E02D642F09940C9498059A01AB01E3
:100BE00060E070E00C94E1050F931F93CF93DF93C7
:100BF000EC010E94EE058C01CE010E949405800F4D
:100C0000911FDF91CF911F910F910895CF92DF92A5
:100C1000EF92FF920F931F93CF93DF93211531052E
:100C200081F4DC01ED91FC910190F081E02D642FC5
:100C3000DF91CF911F910F91FF90EF90DF90CF90B8
:100C400009942A30310501F577FF1DC06A017B0147
:100C5000EC016DE20E948D058C0144275527BA01F5
:100C60004C195D096E097F092AE0CE010E949805A2
:100C7000800F911FDF91CF911F910F91FF90EF9007
:100C8000DF90CF9008952AE0DF91CF911F910F91CF
:100C9000FF90EF90DF90CF900C9498059A01AB01F4
:100CA000770F660B770B0C9406060F931F93CF9369
:100CB000DF93EC010E944E068C01CE010E94940548
:100CC000800F911FDF91CF911F910F910895409157
:100CD000F4025091F5022091F2023091F302421792
:100CE0005307B4F49091E8009570E1F39091E80017
:100CF00092FD19C08093F1008091F4029091F50269
:100D000001968F739927892B19F48EEF8093E80051
:100D10008091F4029091F50201969093F5028093F0
:100D2000F40281E0089580E00895DF92EF92FF924F
:100D30000F931F93CF93DF93D82EF92EE42E062F17
:100D400010E0C8010196880F0E94670683E00E94A8
:100D50006706CD2DDF2D0C0F1D1FC017D10789F0A1
:100D6000E7FE03C0FE01849101C088810E946706EE
:100D7000F82E80E00E9467068F2121968111EDCF29
:100D800001C081E0DF91CF911F910F91FF90EF9013
:100D9000DF9008958091D70081608093D70080EA2A
:100DA0008093D80089B58F7E89BD89B5826089BD61
:100DB00009B400FEFDCF61E070E080E090E00E94A9
:100DC000010B8091D8008F7C80618093D800809146
:100DD000E000807F8093E0000895CF93DF931F921F
:100DE000CDB7DEB71982CE0101960E94AE040E94F3
:100DF000E50DBE016F5F7F4F0E94600D89810F90EE
:100E0000DF91CF9108952FB7FC012083F89467708C
:100E10006093E9000895CF93DF931F92CDB7DEB7BB
:100E2000682FCE0101960E9403078091F2009981FC
:100E30009FBF0F90DF91CF910895EF92FF920F9394
:100E40001F93CF93DF931F92CDB7DEB79091F80237
:100E5000992311F057FF03C08FEF9FEF28C08A013D
:100E60007B01682FCE0101960E9403072091F200BA
:100E700030E0021713070CF49801822FF70194E673
:100E8000815030F09093F9024091F1004193F8CFF6
:100E90002115310521F08091F200882321F089810C
:100EA0008FBFC90104C08BE68093E800F8CF0F9094
:100EB000DF91CF911F910F91FF90EF900895CF9305
:100EC000DF931F92CDB7DEB741E050E0BE016F5F08
:100ED0007F4F0E941D07019719F4898190E002C09D
:100EE0008FEF9FEF0F90DF91CF910895CF93DF9316
:100EF0001F92CDB7DEB7682FCE0101960E9403077F
:100F00009091E800892F807295FF04C09091F200C3
:100F100080E4891B99819FBF0F90DF91CF91089545
:100F20005F926F927F928F929F92AF92BF92CF9279
:100F3000DF92EF92FF920F931F93CF93DF931F9255
:100F4000CDB7DEB7982E6B01B42E052F8091F80235
:100F5000811103C08FEF9FEF76C08091F60280FF72
:100F600005C08091E00082608093E000EB2CF02EC1
:100F7000A12C8AEF882E892D8072682E892D80748D
:100F8000582E9AE3792EE114F10419F4AA2009F4F9
:100F900055C0892D0E947607182F81110AC08A94A6
:100FA0008820C1F261E070E080E090E00E94010BD7
:100FB000EACF90E0E816F9060CF41E2D692DCE015B
:100FC00001960E9403078091E80085FF34C0812FBD
:100FD00090E0E81AF90A662029F01150A0F010926A
:100FE000F100FBCFF60197FE0AC0115050F024919A
:100FF0002093F1003196F9CF21912093F100115007
:10100000D8F7C80ED91EAA2019F07092E8000BC0BC
:101010008091E80085FD09C07092E800AA24A3949D
:10102000E114F10441F0A12C06C0E114F10419F41B
:1010300051107092E80089818FBFA5CF84E680931C
:10104000FA028B2D902F0F90DF91CF911F910F916E
:10105000FF90EF90DF90CF90BF90AF909F908F90D8
:101060007F906F905F9008951092E9001092F502C2
:101070001092F4029093F3028093F2020895DF92AB
:10108000EF92FF920F931F93CF93DF93D82E8A0195
:101090007B01E40EF51EEB01CE15DF0571F0D7FEE6
:1010A00003C0FE01849101C088810E9467062196D9
:1010B0008111F2CF8FEF9FEF01C0C801DF91CF9177
:1010C0001F910F91FF90EF90DF900895CF93DF93E2
:1010D000EC019B01B4E6ABEF21153105F1F0A9015C
:1010E0002134310514F040E450E08091E80082FFA3
:1010F000FCCF942FFB01E21BF30BEC0FFD1F915073
:1011000028F08091F10080833196F9CFB093F902F5
:10111000A093E800241B350BDFCFCB01DF91CF91EB
:1011200008951F920F920FB60F921124CF92DF9263
:10113000EF92FF920F931F932F933F934F935F93E1
:101140006F937F938F939F93AF93BF93EF93FF938F
:10115000CF93DF93CDB7DEB76C97DEBFCDBF1092D4
:10116000E9008091E80083FF1FC189E0FE017596C8
:10117000FE2E0F2F815029F09091F100908331962F
:10118000F9CF84E68093F90282EF8093E8008D899D
:1011900087FF05C09091E80090FFFCCF03C09EEF51
:1011A0009093E800982F907609F0D7C09E894F89D8
:1011B000588D2F89188D91110CC0803829F4809199
:1011C000F7028093F10002C01092F1001092F1003A
:1011D000E4C0913051F48111E0C04130510509F073
:1011E000DCC08091F7028D7F0BC0933061F48111D8
:1011F000D4C04130510509F0D0C08091F70282601F
:101200008093F702CAC0953049F48091E80080FFCE
:10121000FCCF822F80688093E300BFC0963009F036
:101220006FC0CB8CDC8C123069F580E090E00E94BE
:1012300034080E94ED0699E09E012F5F3F4F79012F
:10124000F901292F11922A95E9F799831A8391E0E0
:101250009E8390EA98879AEF99872091F4023091C3
:10126000F502275F3F4F3C832B838D83C6010E948D
:10127000340849E050E0B70180E00E943F080E9436
:10128000ED068BC0C6010E9434080E94E50D6F2D4B
:10129000702F0E94890D009719F00CF07EC081C05C
:1012A000113009F46FC0133009F07BC08F89882397
:1012B00009F46BC0823029F440E866E187E291E0EE
:1012C00006C0813039F440E868E08EE191E00E9488
:1012D000950655C0833009F064C00E94E50D8E016B
:1012E0000F5F1F4FB8010E94A80DF8010190002068
:1012F000E9F73197BF01601B710B40E0C801E7CFF0
:10130000973009F44EC0983021F481E08093F100C9
:1013100044C0993009F041C0837009F042C0EDE04B
:10132000F1E081E031E096E32081211109C08EE7F0
:101330008093EA001092EA008F898093F8022DC012
:101340008093E9003093EB0021912093EC0090937F
:10135000ED008F5F873041F7EACF8B8D9C8D0E9427
:101360003408898D811105C08F2D902F0E94B904FA
:1013700006C00E94E50D6F2D702F0E94C70D8823B7
:1013800081F00BC06CE071E002C06EE371E0FB0124
:10139000449150E080E80E943F088EEF8093E8007F
:1013A00003C081E28093EB006C960FB6F894DEBF29
:1013B0000FBECDBFDF91CF91FF91EF91BF91AF9164
:1013C0009F918F917F916F915F914F913F912F915D
:1013D0001F910F91FF90EF90DF90CF900F900FBE75
:1013E0000F901F9018958093E9008091F200882358
:1013F00019F08AE38093E80008951F920F920FB6C8
:101400000F9211242F933F934F935F936F937F938A
:101410008F939F93AF93BF93CF93EF93FF93C0911D
:10142000E1008091E100837F8093E100C3FF0FC062
:101430001092E90081E08093EB001092EC0082E3CF
:101440008093ED001092F80288E08093F000C2FFD4
:1014500015C083E00E94F3098091FA02882329F0E5
:101460008091FA0281508093FA028091F9028823D8
:1014700029F08091F90281508093F902C4FF10C0D5
:101480008091E2008E7E81608093E2008091E10095
:101490008F7E8093E1008091F6028E7E806111C084
:1014A000C0FF11C08091E2008E7E80618093E200D7
:1014B0008091E1008E7E8093E1008091F6028E7E25
:1014C00081608093F602FF91EF91CF91BF91AF9130
:1014D0009F918F917F916F915F914F913F912F914C
:1014E0000F900FBE0F901F9018951092F802109257
:1014F000F7021092F6020E94CA06E1EEF0E0808147
:101500008E7E80838DE08093E20008951F920F927B
:101510000FB60F9211242F933F938F939F93AF9306
:10152000BF938091FC029091FD02A091FE02B091C8
:10153000FF023091FB0226E0230F2D3720F40296A4
:10154000A11DB11D05C029E8230F0396A11DB11DE2
:101550002093FB028093FC029093FD02A093FE0275
:10156000B093FF028091000390910103A0910203C8
:10157000B09103030196A11DB11D809300039093C8
:101580000103A0930203B0930303BF91AF919F9116
:101590008F913F912F910F900FBE0F901F90189534
:1015A0002FB7F8946091FC027091FD028091FE02C9
:1015B0009091FF022FBF08953FB7F89480910003E8
:1015C00090910103A0910203B091030326B5A89B5B
:1015D00005C02F3F19F00196A11DB11D3FBFBA2FC5
:1015E000A92F982F8827820F911DA11DB11DBC0125
:1015F000CD0143E0660F771F881F991F4A95D1F7E9
:1016000008958F929F92AF92BF92CF92DF92EF9206
:10161000FF926B017C010E94DC0A4B015C01C1144A
:10162000D104E104F10401F10E945F0D0E94DC0A83
:10163000DC01CB0188199909AA09BB09883E9340AE
:10164000A105B10560F321E0C21AD108E108F10853
:1016500088EE880E83E0981EA11CB11CC114D10431
:10166000E104F10419F7DBCFFF90EF90DF90CF900A
:10167000BF90AF909F908F900895789484B58260CA
:1016800084BD84B5816084BD85B5826085BD85B526
:10169000816085BDEEE6F0E0808181608083E1E8D5
:1016A000F0E010828081826080838081816080830D
:1016B000E0E8F0E0808181608083E1E9F0E0808112
:1016C00082608083808181608083E0E9F0E08081B6
:1016D00081608083E1ECF0E08081846080838081A0
:1016E00082608083808181608083E3ECF0E0808190
:1016F00081608083E0ECF0E0808182608083E2ECB6
:10170000F0E0808181608083EAE7F0E0808184609E
:10171000808380818260808380818E7F80838081CE
:1017200080688083089590E0FC013197EF30F105E7
:10173000B0F5EA5AFF4F0C949D0F809180008F778F
:1017400003C0809180008F7D8093800008958091F8
:101750008000877FF9CF84B58F7702C084B58F7DF5
:1017600084BD0895809190008F7707C0809190008C
:101770008F7D03C080919000877F809390000895B3
:101780008091C0008F7703C08091C0008F7D8093CF
:10179000C00008958091C200877F8093C2000895A1
:1017A000CF93DF9390E0FC01EF59FE4F2491FC01B1
:1017B000E058FE4F8491882361F190E0880F991FD3
:1017C000FC01E554FE4FC591D491FC01E355FE4F59
:1017D000A591B491611109C09FB7F89488812095B3
:1017E00082238883EC912E230BC0623061F49FB773
:1017F000F8948881322F309583238883EC912E2BA7
:101800002C939FBF06C08FB7F894E8812E2B2883B6
:101810008FBFDF91CF9108951F93CF93DF93282F30
:1018200030E0F901EE5BFE4F8491F901EF59FE4F74
:10183000D491F901E058FE4FC491CC23C1F0162F8A
:1018400081110E94930BEC2FF0E0EE0FFF1FE35588
:10185000FE4FA591B4919FB7F894111104C08C91DB
:10186000D095D82302C0EC91DE2BDC939FBFDF9193
:10187000CF911F910895CF93DF93282F30E0F90186
:10188000EE5BFE4F8491F901EF59FE4FD491F901BF
:10189000E058FE4FC491CC2391F081110E94930B2C
:1018A000EC2FF0E0EE0FFF1FE156FE4FA591B49133
:1018B000EC91ED2381E090E021F480E002C080E033
:1018C00090E0DF91CF9108958091370390E02091CF
:1018D0003803821B91090895909138038091370352
:1018E000981750F4E92FF0E0E75CFC4F208130E0DE
:1018F0009F5F9093380302C02FEF3FEFC901089517
:10190000E091380380913703E81730F4F0E0E75CAA
:10191000FC4F808190E008958FEF9FEF0895089528
:10192000CF93DF93EC01E0911003F0911103309716
:10193000F1F090913803809137039817C0F090E050
:10194000292F30E02617370754F4DE01A20FB31F0A
:101950004C91D901A75CBC4F4C939F5FF1CF109283
:10196000380360933703CB01DF91CF910994DF9166
:10197000CF910895E0911203F0911303309729F06D
:10198000109216031092150309940895CF92DF92D6
:10199000EF92FF920F931F93CF93DF937C01CB01C4
:1019A0008A0120911403222389F0EB016B01C40EFC
:1019B000D51ECC15DD0569F06991D701ED91FC913B
:1019C0000190F081E02DC7010995F3CF642F0E94AB
:1019D0001B0EC801DF91CF911F910F91FF90EF90E7
:1019E000DF90CF900895CF93DF931F92CDB7DEB7EE
:1019F0006983209114032223D1F020911503203212
:101A000040F021E030E0FC013383228380E090E06D
:101A100015C080911603E82FF0E0E95EFC4F998134
:101A200090838F5F809316038093150305C061E058
:101A3000CE0101960E941B0E81E090E00F90DF9195
:101A4000CF910895FC011382128288EE93E0A0E00A
:101A5000B0E084839583A683B78389E891E091837E
:101A60008083089510923803109237031092160362
:101A7000109215030C94F90DCF93DF93EC01862F90
:101A80000E94170E8AEB9CE00E94390E80E99CE0D0
:101A90000E94340ECE01DF91CF910C94320D0C9444
:101AA0003C0D70931103609310030895709313031A
:101AB00060931203089584E093E00C94220D08953E
:101AC000EF92FF920F931F93CF93DF937B01FC0163
:101AD000C281D38100E010E0209781F0E881F98194
:101AE0000280F381E02DB701CE01099597FD08C072
:101AF000080F191F0884D985C02DEECFC80102C078
:101B00008FEF9FEFDF91CF911F910F91FF90EF909B
:101B100008950F931F93CF93DF938B01FC01C28134
:101B2000D381209771F0E881F9810480F581E02D5F
:101B3000B801CE010995009731F40884D985C02DEC
:101B4000F0CF80E090E0DF91CF911F910F91089549
:101B50000F931F93CF93DF938B01FC01C281D3813D
:101B6000209771F0E881F9810680F781E02DB801B6
:101B7000CE010995080F111D0884D985C02DF0CF1D
:101B8000F8011082DF91CF911F910F9108950F936B
:101B90001F93CF93DF938B01FC01C281D3812097E8
:101BA00071F0E881F9810190F081E02DB801CE015A
:101BB0000995811105C00884D985C02DF0CF80E03A
:101BC000DF91CF911F910F91089580915D03811155
:101BD0000DC082E08093590384E080935A031092F1
:101BE0005C0310925B0381E080935D0389E593E0E1
:101BF00008951092D20381E08093D0031092CF0316
:101C000061E082E00E940C0C61E083E00E940C0C19
:101C1000E9EBF0E080818E7F808380818D7F8083FF
:101C200080E28093B80085E48093BC000895880F1B
:101C30008093BA000895613298F42091D203243041
:101C400089F460938703282FA9E8B3E0FC018E2F65
:101C5000821B861718F481918D93F9CF80E0089547
:101C600081E0089582E008959093CC038093CB03A4
:101C700008959093CE038093CD03089585ED8093CE
:101C8000BC008091BC0084FDFCCF1092D20308956B
:101C900085EC8093BC001092D20308951F920F929E
:101CA0000FB60F9211242F933F934F935F936F932F
:101CB0007F938F939F93AF93BF93EF93FF93809105
:101CC000B900887F803609F49CC068F5883209F431
:101CD0005BC090F4803109F454C038F4882309F4CF
:101CE000F5C0883009F44DC0F5C0883109F44CC006
:101CF000803209F45DC0EEC0803409F468C048F455
:101D0000803309F455C0883309F0E4C0809365033B
:101D1000A8C0803509F44FC0883509F45DC0883407
:101D200009F0D8C0D5C0883909F4C6C0A8F48837EE
:101D300009F467C038F4883609F463C0803709F4C1
:101D400060C0C8C0883809F4B7C0803909F45FC0E2
:101D5000803809F0BFC05BC0803B09F485C038F40F
:101D6000803A09F466C0883A09F47EC0B3C0803C6A
:101D700009F4A6C0883C09F4A3C0883B09F489C0D3
:101D8000A9C08091D10310C09091AA038091A903AA
:101D9000981770F5E091AA0381E08E0F8093AA0353
:101DA000F0E0E555FC4F80818093BB0085EC85C059
:101DB000809365038DC0E091AA0381E08E0F80932C
:101DC000AA038091BB00F0E0E555FC4F8083909121
:101DD000AA038091A9036DC0E091AA0381E08E0F50
:101DE0008093AA038091BB00F0E0E555FC4F80830F
:101DF0008091D00381116CC081E08093CF0384EA8D
:101E000060C083E08093D20310926603CFCF8091AD
:101E10006603803208F050C0E091660381E08E0FC7
:101E2000809366038091BB00F0E0E959FC4F80830A
:101E3000BDCF80916603803230F4E0916603F0E01C
:101E4000E959FC4F10820E943E0E6091660370E0DB
:101E5000E091CB03F091CC0387E693E009951092D3
:101E600066030E94480E36C084E08093D20310922D
:101E7000880310928703E091CD03F091CE0309957A
:101E800080918703811105C081E0809387031092C0
:101E90008903E091880381E08E0F80938803F0E04E
:101EA000E757FC4F80818093BB009091880380911D
:101EB0008703981708F47ACF85E88093BC000AC09E
:101EC00085EC8093BC001092D20304C0109265038D
:101ED0000E943E0EFF91EF91BF91AF919F918F9124
:101EE0007F916F915F914F913F912F910F900FBE16
:101EF0000F901F901895A1E21A2EAA1BBB1BFD0183
:101F00000DC0AA1FBB1FEE1FFF1FA217B307E407D8
:101F1000F50720F0A21BB30BE40BF50B661F771F30
:101F2000881F991F1A9469F7609570958095909510
:101F30009B01AC01BD01CF010895EE0FFF1F05907D
:101F4000F491E02D0994AEE0B0E0E9EAFFE00C94F2
:101F50007A120D891E8986E08C831A8309838FEF9C
:101F60009FE79E838D83AE01475E5F4F6F89788DBB
:101F7000CE0101960E94C50FEF81F885E00FF11F99
:101F800010822E96E4E00C949612ABE0B0E0EBECFD
:101F9000FFE00C946C126C017B018A01FC0117823A
:101FA0001682838181FFCCC1CE0101963C01F601EE
:101FB0009381F70193FD859193FF81917F018823A0
:101FC00009F4BAC1853239F493FD859193FF81916B
:101FD0007F01853229F4B60190E00E94BC11E7CF61
:101FE000912C212C312CFFE1F315D8F08B3279F0B4
:101FF00038F4803279F08332A1F4232D20611DC0A2
:102000008D3261F0803369F4232D216016C0832D59
:102010008260382EE32DE4603E2E2AC0F32DF86056
:102020001DC037FC2DC020ED280F2A3040F08E3225
:10203000B9F436FC81C1232D2064322E19C036FE3E
:1020400006C08AE0989E200D1124922E11C0EAE06D
:102050002E9E200D1124222EF32DF0623F2E08C05B
:102060008C3621F4832D8068382E02C0883641F4E6
:10207000F70193FD859193FF81917F018111B3CF8A
:10208000982F9F7D9554933028F40C5F1F4F9FE34A
:1020900099830DC0833631F0833771F0833509F0B1
:1020A00059C021C0F801808189830E5F1F4F8824A9
:1020B0008394912C530113C02801F2E04F0E511C60
:1020C000F801A080B18036FE03C0692D70E002C027
:1020D0006FEF7FEFC5010E94B1114C018201F32D1A
:1020E000FF773F2E16C0280122E0420E511CF80156
:1020F000A080B18036FE03C0692D70E002C06FEF92
:102100007FEFC5010E94A6114C01F32DF0683F2E10
:10211000820133FC1BC0822D90E088169906B0F432
:10212000B60180E290E00E94BC112A94F4CFF50140
:1021300037FC859137FE81915F01B60190E00E94E6
:10214000BC1121102A9421E0821A91088114910473
:1021500071F7E8C0843611F0893641F5F80137FE91
:1021600007C060817181828193810C5F1F4F08C01D
:1021700060817181072E000C880B990B0E5F1F4F39
:10218000F32DFF763F2E97FF09C0909580957095AF
:1021900061957F4F8F4F9F4FF0683F2E2AE030E0D0
:1021A000A3010E94F811882E861845C0853731F4A6
:1021B000232D2F7EB22E2AE030E025C0932D997F6B
:1021C000B92E8F36C1F018F4883579F0B5C0803754
:1021D00019F0883721F0B0C0E92FE061BE2EB4FEBF
:1021E0000DC0FB2DF460BF2E09C034FE0AC0292F9C
:1021F0002660B22E06C028E030E005C020E130E0C5
:1022000002C020E132E0F801B7FE07C060817181B1
:10221000828193810C5F1F4F06C06081718180E0D5
:1022200090E00E5F1F4FA3010E94F811882E8618C0
:10223000FB2DFF773F2E36FE0DC0232D2E7FA22EC5
:10224000891458F434FE0BC032FC09C0832D8E7EF5
:10225000A82E05C0B82CA32C03C0B82C01C0B92CE3
:10226000A4FE0FC0FE01E80DF11D8081803321F432
:102270009A2D997EA92E09C0A2FE06C0B394B394EC
:1022800004C08A2D867809F0B394A3FC11C0A0FE87
:1022900006C0B21488F4280C922C9B180EC0B214FD
:1022A00060F4B60180E290E00E94BC11B394F7CFD5
:1022B000B21418F42B1802C0982C212CA4FE10C0C4
:1022C000B60180E390E00E94BC11A2FE17C0A1FC01
:1022D00003C088E790E002C088E590E0B6010CC03A
:1022E0008A2D867859F0A1FE02C08BE201C080E2FF
:1022F000A7FC8DE2B60190E00E94BC11891438F46D
:10230000B60180E390E00E94BC119A94F7CF8A94C2
:10231000F301E80DF11D8081B60190E00E94BC112F
:102320008110F5CF222009F442CEB60180E290E080
:102330000E94BC112A94F6CFF6018681978102C0D3
:102340008FEF9FEF2B96E2E10C948812FC01059031
:10235000615070400110D8F7809590958E0F9F1FA7
:102360000895FC016150704001900110D8F78095EC
:1023700090958E0F9F1F08950F931F93CF93DF9318
:10238000FB01238121FD03C08FEF9FEF2CC022FFB3
:1023900016C046815781248135814217530744F482
:1023A000A081B1819D012F5F3F4F318320838C93AA
:1023B000268137812F5F3F4F3783268314C08B01DF
:1023C000EC01FB010084F185E02D0995892BE1F6F4
:1023D000D80116968D919C911797019617969C930C
:1023E0008E931697CE01DF91CF911F910F91089593
:1023F000FA01AA27283051F1203181F1E8946F9336
:102400006E7F6E5F7F4F8F4F9F4FAF4FB1E03ED0DB
:10241000B4E03CD0670F781F891F9A1FA11D680F79
:10242000791F8A1F911DA11D6A0F711D811D911DAC
:10243000A11D20D009F468943F912AE0269F112421
:102440003019305D3193DEF6CF010895462F477085
:10245000405D4193B3E00FD0C9F7F6CF462F4F70E0
:10246000405D4A3318F0495D31FD4052419302D03E
:10247000A9F7EACFB4E0A6959795879577956795E4
:10248000BA95C9F700976105710508959B01AC01E4
:102490000A2E06945795479537952795BA95C9F70B
:1024A000620F731F841F951FA01D0895F999FECF19
:1024B00092BD81BDF89A992780B50895262FF99984
:1024C000FECF1FBA92BD81BD20BD0FB6F894FA9A17
:1024D000F99A0FBE019608952F923F924F925F9204
:1024E0006F927F928F929F92AF92BF92CF92DF9224
:1024F000EF92FF920F931F93CF93DF93CDB7DEB789
:10250000CA1BDB0B0FB6F894DEBF0FBECDBF09941C
:102510002A88398848885F846E847D848C849B8473
:10252000AA84B984C884DF80EE80FD800C811B8181
:10253000AA81B981CE0FD11D0FB6F894DEBF0FBEB0
:0A254000CDBFED010895F894FFCF20
:10254A00FFFFFFFF00E100000000000000C18081E2
:10255A0000000043535042207265636569766564E2
:10256A0020627974652D2D3E20436861723A2027D6
:10257A00257327202009204865783A2025237820CA
:10258A0009204465633A202564200A0001000C00F2
:10259A0009000D0000000400080005001E000600E6
:1025AA000A0063000000000042048E0469046E04FD
:1025BA007104810458040D0A006E616E00696E662A
:1025CA00006F76660000000000F30CC60C3F048F13
:0825DA000C640C6C0C800C0079
:00000001FF
