:100000000C94D7000C94FF000C94FF000C94FF009C
:100010000C94FF000C94FF000C94FF000C94FF0064
:100020000C94FF000C94FF000C94B7050C94200670
:100030000C94FF000C94FF000C94FF000C94FF0044
:100040000C94FF000C94FF000C94FF000C94FF0034
:100050000C94FF000C94FF000C94FF000C946208B9
:100060000C94FF000C94FF000C94FF000C94FF0014
:100070000C94FF000C94FF000C94FF000C94FF0004
:100080000C94FF000C94FF000C94FF000C94FF00F4
:100090000C94AC080C94FF000C94FF000C94FF002F
:1000A0000C94FF000C94FF000C94FF000000000073
:1000B000240027002A002D00300000000000250049
:1000C00028002B002E003100000000002300260035
:1000D00029002C002F000404040404030405020278
:1000E00002020403020202020606060606060404D1
:1000F0000202020404040802011040804010204063
:10010000804080080204018040201002011080100D
:10011000204040200000000200090F0000030401FD
:10012000000C0000000000000000000000000000C3
:10013000000000080B000202020000090400000198
:10014000020200000524001001052401010104241D
:10015000020605240600010705810310004009047A
:100160000100020A00000007050202400000070526
:1001700083024000000403090412010002EF02019F
:10018000409A230E800001010203014164616672FE
:1001900075697400497473794269747379203332D4
:1001A00075342035562031364D487A00C80911245F
:1001B0001FBECFEFDAE0DEBFCDBF11E0A0E0B1E0BF
:1001C000EAE8FEE102C005900D92AE39B107D9F719
:1001D00023E0AEE9B1E001C01D92A03BB207E1F718
:1001E00010E0C7EDD0E004C02197FE010E94650C2D
:1001F000C63DD107C9F70E94E9090C94430F0C943E
:10020000000090915303911103C08FEF9FEF089569
:100210004FB7F89492E09093E9009091F200292F63
:1002200030E01216130614F421E030E0232B29F0FD
:1002300084E6809352038091F100992339F0209154
:10024000F200211103C02BE62093E8004FBF992351
:10025000E1F290E008952FB7F89483E08093E900ED
:100260009091E800892F807295FF04C09091F20070
:1002700080E4891B2FBF089580914A0381110DC02E
:1002800082E08093460384E0809347031092490301
:100290001092480381E080934A0386E493E0089536
:1002A000E0913F02F0914002309729F0109236021F
:1002B0001092350209940895CF93DF93AC01E09139
:1002C0003D02F0913E023097F1F09091380280911A
:1002D00037029817C0F090E0292F30E02617370733
:1002E00054F4D901A256BE4F240F351FE9012881CD
:1002F0002C939F5FF1CF1092380260933702CB01AD
:10030000DF91CF910994DF91CF91089540912C0214
:1003100050912D0220912A0230912B02421753074F
:10032000B4F49091E8009570E1F39091E80092FDAB
:1003300019C08093F10080912C0290912D020196BA
:100340008F739927892B19F48EEF8093E8008091A1
:100350002C0290912D02019690932D0280932C02F5
:1003600081E0089580E00895EF92FF920F931F932C
:10037000CF93DF93F82E192FE62E042F81E0860FFE
:10038000880F0E94860183E00E948601CF2DD12F25
:10039000EC0EFD2EF11CCE15DF05B9F007FF13C0E2
:1003A000FE0184910E948601182F80E00E94860140
:1003B000812321968111EFCFDF91CF911F910F9172
:1003C000FF90EF9008958881EDCF81E0F5CFDF9227
:1003D000EF92FF920F931F93CF93DF93D82E8A0152
:1003E000EB017B01E40EF51ECE15DF0559F0D7FEBB
:1003F00012C0FE0184910E94860121968111F4CFE2
:100400000FEF1FEFC801DF91CF911F910F91FF9068
:10041000EF90DF9008958881EECF0F931F93CF93D5
:10042000DF931F92CDB7DEB782E0898342E450E0CC
:1004300063E371E080E80E94E7010E943C01DC0177
:1004400012960D911C910115110589F0D801ED91BD
:10045000FC910280F381E02DBE016F5F7F4FC801E8
:10046000099597FD04C0F80100851185ECCF8981BD
:100470000F90DF91CF911F910F910895CF93DF934C
:100480001F92CDB7DEB76983DC01ED91FC9102804C
:10049000F381E02D41E050E0BE016F5F7F4F099591
:1004A0000F90DF91CF91089583E08093E9008091D0
:1004B000F200882319F08AE38093E80008950E94EF
:1004C0002B0190E00895FC018485958597FD05C07A
:1004D0002FEF3FEF3587248708950C940101CF93C8
:1004E000DF93EC018C859D8597FF04C00E9401017C
:1004F0009D878C878C859D85DF91CF910895FC0128
:100500008485958597FD0BC09FB7F89482E0809312
:10051000E9008091F2009FBF90E0019608959FB797
:10052000F89482E08093E9008091F2009FBF90E010
:10053000089581508F3008F047C0E82FF0E0ED5566
:10054000FD4F0C94650CC002C402B202B802BC029A
:10055000E402E402E402C702CD02D102D502DB02CA
:10056000E402DF02809180008F77809380000895FD
:10057000809180008F7DF9CF80918000877FF5CFBB
:1005800084B58F7784BD089584B58F7DFBCF80912E
:1005900090008F77809390000895809190008F7DD8
:1005A000F9CF80919000877FF5CF8091C0008F7741
:1005B0008093C00008958091C0008F7DF9CF809115
:1005C000C200877F8093C2000895CF93DF93282FC6
:1005D00030E0F901EC5EFE4F8491F901EB50FF4FE2
:1005E000D491F901EA52FF4FC491CC23A1F08111BB
:1005F0000E949902EC2FF0E0EE0FFF1FE853FF4F2F
:10060000A591B491EC91ED2381E090E009F480E0B4
:10061000DF91CF91089580E090E0FACF1F93CF93C0
:10062000DF93282F30E0F901EC5EFE4F8491F90151
:10063000EB50FF4FD491F901EA52FF4FC491CC2304
:10064000A9F0162F81110E949902EC2FF0E0EE0F15
:10065000FF1FE654FF4FA591B4918FB7F894EC912A
:10066000111108C0D095DE23DC938FBFDF91CF91AD
:100670001F910895DE2BF8CFCF93DF9390E0FC011C
:10068000EB50FF4F24918A529F4FFC0184918823A5
:10069000D1F090E0880F991FFC01E455FF4FA59120
:1006A000B491FC01E654FF4FC591D49161110EC085
:1006B0009FB7F8948C91E22FE0958E238C9328813C
:1006C000E223E8839FBFDF91CF9108958FB7F8941D
:1006D000EC91E22BEC938FBFF6CF3FB7F89480916B
:1006E000260290912702A0912802B091290226B5F6
:1006F000A89B05C02F3F19F00196A11DB11D3FBF5A
:10070000BA2FA92F982F8827BC01CD01620F711D28
:10071000811D911D42E0660F771F881F991F4A9522
:10072000D1F708958F929F92AF92BF92CF92DF92AE
:10073000EF92FF926B017C010E946D034B015C0103
:10074000C114D104E104F104B9F00E946D036819E9
:1007500079098A099B09683E73408105910580F3F8
:1007600021E0C21AD108E108F10888EE880E83E082
:10077000981EA11CB11CE4CFFF90EF90DF90CF90AA
:10078000BF90AF909F908F9008958F929F92AF925D
:10079000BF92CF92DF92EF92FF920F931F93CF936E
:1007A000DF936C017B018A0180910B01882309F49E
:1007B0005BC080915303882309F456C080913002B6
:1007C00080FF05C08091E00082608093E000E80136
:1007D000B12C8AEFA82E93E0892E2AE3922E20973F
:1007E00011F4BB20D9F10E942B0181110AC0AA94F7
:1007F000AA20D1F161E070E080E090E00E949203D5
:10080000EECF8C171D0611F00CF08C2F9FB7F894CB
:100810008092E9002091E80025FD02C09FBFDFCF54
:10082000282F30E0C21BD30BF701815020F04191FB
:100830004093F100FACFE20EF31EBB2021F090921C
:10084000E800B12CEBCF8091E80085FDE7CF9092D6
:10085000E800BB24B394209709F3F3CF84E6809398
:100860002F02101611063CF081E090E0F601938310
:10087000828310E000E0C801DF91CF911F910F91BA
:10088000FF90EF90DF90CF90BF90AF909F908F90B0
:10089000089585ED8093BC008091BC0084FDFCCF61
:1008A000109234020895613298F420913402243079
:1008B00089F46093DE01282FAEEBB1E0FC018E2FAE
:1008C000821B861710F080E0089581918D93F7CFF9
:1008D00081E0089582E008950895E09138028091C2
:1008E0003702E81730F4F0E0E256FE4F808190E0E6
:1008F00008958FEF9FEF089590913802809137020D
:100900002FEF3FEF981748F4E92FF0E0E256FE4F43
:10091000208130E09F5F90933802C9010895809153
:10092000370290913802891B990B0895CF93DF937A
:10093000CB01EA01642F0E945304CE01DF91CF91D5
:100940000895CF93DF931F92CDB7DEB7698361E03F
:10095000CE0101960E94530481E090E00F90DF9158
:10096000CF91089590E080E00895FC01019000206F
:10097000E9F73197AF01481B590BBC0184E593E0BF
:100980000C94C5038F929F92AF92BF920F931F93C7
:10099000CF93DF93CDB7DEB7A1970FB6F894DEBF44
:1009A0000FBECDBF19A2423008F44AE08E010F5DA0
:1009B0001F4F842E912CB12CA12CA50194010E94D3
:1009C000430CE62FB901CA01EA30F4F4E05DD80126
:1009D000EE938D01232B242B252B79F790E080E0DB
:1009E000109719F0CD010E94B504A1960FB6F894A6
:1009F000DEBF0FBECDBFDF91CF911F910F91BF9092
:100A0000AF909F908F900895E95CE1CFAF92BF9235
:100A1000CF92DF92EF92FF920F931F93CF93DF93CA
:100A2000CDB7DEB7C456D1090FB6F894DEBF0FBEFE
:100A3000CDBF7C01E5E4F2E080E091E0DF019C01C4
:100A40001D9221503040E1F710E000E08FE4C82E05
:100A500081E0D82ECE0101965C010E151F0538F5F8
:100A600084EA93E00F3F110509F0F0F40E947C0442
:100A7000F801EB5BFD4F808399279F938F939F93A2
:100A80008F93FF93EF93DF92CF92BF92AF920E942A
:100A90006B0CC5010E94B5040F5F1F4F0FB6F89491
:100AA000DEBF0FBECDBFD9CF0E947C04D6CFE0926F
:100AB0004503CC59DF4F0FB6F894DEBF0FBECDBF54
:100AC000DF91CF911F910F91FF90EF90DF90CF902A
:100AD000BF90AF9008950C942D0C8091450290E04A
:100AE000803891055CF40E946B05682F84EA93E0DE
:100AF0000E94A10488E891E00C94B5048038910527
:100B0000C9F782E00E94E50283E00E94E5028DE0E1
:100B10000E94E5028CE00E94E50223E0880F991F05
:100B20002A95E1F7E2CF0F931F93CF938C0184E0D6
:100B300090E00E946B05C82F000F111FF801ED5EB9
:100B4000FE4F108161E0812F0E940E0384E1C89F57
:100B5000B0011124072E000C880B990B0E94920300
:100B600060E0812FCF911F910F910C940E031F9283
:100B70000F920FB60F9211248F939F938091E100F3
:100B80009091E100937F9093E10083FF0FC010925A
:100B9000E90091E09093EB001092EC0092E39093C7
:100BA000ED001092530398E09093F00082FF1CC078
:100BB00093E09093E9009091F200992319F09AE361
:100BC0009093E80090912F02992329F090912F02A1
:100BD000915090932F0290915203992329F0909174
:100BE000520391509093520384FF18C08091E20009
:100BF0008E7E81608093E2008091E1008F7E809301
:100C0000E100809130028E7E8061809330029F915E
:100C10008F910F900FBE0F901F90189580FFF7CF08
:100C20008091E2008E7E80618093E2008091E100FD
:100C30008E7E8093E100809130028E7E8160E5CFD0
:100C40001F920F920FB60F921124CF92DF92EF9264
:100C5000FF920F931F932F933F934F935F936F9345
:100C60007F938F939F93AF93BF93EF93FF93CF9314
:100C7000DF93CDB7DEB76C97DEBFCDBF1092E90032
:100C80008091E80083FF2FC089E0FE017596EE2E6B
:100C9000DF2E815029F09091F10090833196F9CFA9
:100CA00084E68093520382EF8093E8008D8987FF6A
:100CB00039C09091E80090FFFCCF982F907609F012
:100CC00033C19E894F89588D2F89F88C911131C07D
:100CD000803861F5809131028093F1001092F1002B
:100CE0008EEF8093E8006C960FB6F894DEBF0FBECF
:100CF000CDBFDF91CF91FF91EF91BF91AF919F91C8
:100D00008F917F916F915F914F913F912F911F91A3
:100D10000F91FF90EF90DF90CF900F900FBE0F904C
:100D20001F9018959EEF9093E800C7CF1092F100A6
:100D3000D5CF913059F48111D3CF4130510581F68F
:100D4000809131028D7F80933102CACF933049F474
:100D50008111C6CF4130510519F680913102826070
:100D6000F2CF953041F48091E80080FFFCCF2068FD
:100D70002093E300B5CF963009F0A8C00B8D1C8DF1
:100D800022E01092E90010922D0210922C02F21231
:100D90002EC010922B0210922A020E940D021F8276
:100DA00099E09983FA8291E09E8390EA98879AEF7E
:100DB000998720912C0230912D02275F3F4F3C8371
:100DC0002B838D831092E90010922D0210922C0239
:100DD00010932B0200932A0249E050E0BE016F5F9E
:100DE0007F4F80E00E94E7010E940D0279CF1093AF
:100DF0002B0200932A020E943C01DC0112960D9105
:100E00001C910115110509F457C1D801ED91FC9110
:100E10000480F581E02D6E2D7D2DC8010995009788
:100E200009F045C1F80100851185EBCFF3E0FF1211
:100E30000EC08F89882309F440C0823061F440E8F5
:100E400067E184E991E00E94B401811149CF81E218
:100E50008093EB0048CF813029F440E868E08BE8CC
:100E600091E0F1CF833099F70E943C01DC011296AA
:100E7000ED90FC908E010F5F1F4F6801E114F104AB
:100E800079F0D701ED91FC910680F781E02DB80152
:100E9000C7010995080F111DF701E084F184EECF19
:100EA000D8011C92F60101900020E9F73197BF01AB
:100EB0006C197D0940E0C601C6CF65E771E0FB0112
:100EC000449150E080E80E94E7010ACF973009F48E
:100ED000BECF983021F481E08093F10001CF9930AA
:100EE00009F0FECE837009F0B2CFEDE0F1E081E0D1
:100EF00031E096E32191222371F08093E900309351
:100F0000EB00DF0111972C912093EC009093ED0002
:100F10008F5F873079F78EE78093EA001092EA00BE
:100F20008F8980935303DCCE8B8D9C8D1092E900CA
:100F300010922D0210922C0290932B0280932A0281
:100F4000898D81119AC08E899D89913A49F48132A7
:100F500009F07DCF47E050E064E071E080E0B3CF7E
:100F6000913209F074CF833269F48F89988DB0E0A3
:100F7000A0E08093000190930101A0930201B0933F
:100F80000301AECE8032A9F48091E80082FFFCCF4D
:100F900088E0E4E0F1E0815029F09091F100908345
:100FA0003196F9CF84E6809352038BEF8093E8006B
:100FB00097CE823209F094CE8F8980930B01EEEFA9
:100FC000FFE7859194918B3F9C4D51F1E0E0F8E073
:100FD0008091040190910501A0910601B091070153
:100FE000803B9440A105B105F1F480910B0180FD97
:100FF0001AC0EE3F8AE0F80789F587E797E7918303
:1010000080838091600080932E0288E19BE00FB680
:10101000F894A895809360000FBE9093600060CE16
:10102000EEEFFAE0D5CF808191818737974709F0BD
:1010300057CEA89580916000886180936000809170
:101040002E0280936000EE3F2AE0F20789F0809143
:10105000FE0A9091FF0A9183808342CE8081918124
:101060008737980751F29093FF0A8093FE0AC5CF05
:101070001092FF0A1092FE0A33CE0E943C01DC015E
:1010800012960D911C910115110509F4E0CED801BD
:10109000ED91FC910190F081E02D6E2D7D2DC80128
:1010A000099581111DCEF80100851185ECCF181628
:1010B00019060CF415CECBCEF1E0FF12B7CE69E7DE
:1010C00071E0FDCE1F920F920FB60F9211242F9355
:1010D0003F938F939F93AF93BF93809141029091E1
:1010E0004202A0914302B09144023091250223E0D4
:1010F000230F2D3758F50196A11DB11D2093250210
:101100008093410290934202A0934302B093440221
:101110008091260290912702A0912802B091290285
:101120000196A11DB11D8093260290932702A093E2
:101130002802B0932902BF91AF919F918F913F9167
:101140002F910F900FBE0F901F90189526E8230F38
:101150000296A11DB11DD2CF1F920F920FB60F9212
:1011600011242F933F934F935F936F937F938F93AC
:101170009F93AF93BF93EF93FF938091B900887FC4
:10118000803609F44AC0F0F5883209F4A7C018F592
:10119000803109F49BC0B8F4882309F4F6C0883084
:1011A00009F494C0FF91EF91BF91AF919F918F91FE
:1011B0007F916F915F914F913F912F910F900FBE53
:1011C0000F901F901895883109F488C0803251F72C
:1011D0008093010214C0803409F49DC040F4803330
:1011E000B9F38833F9F68093010285ECB0C08035FD
:1011F00009F485C0883509F496C0883499F60E94B0
:101200004904D0CF883909F48CC038F5883729F0E3
:1012100050F4883611F0803729F683E08093340249
:101220001092000257C0883809F47BC0803919F049
:10123000803809F0B7CF80910002803208F071C089
:10124000E091000281E08E0F809300028091BB004C
:10125000F0E0E052FE4F80833DC0803B39F0E0F487
:10126000803A09F479C0883A09F09CCF84E08093F1
:1012700034021092DF011092DE01E0913B02F09106
:101280003C0209958091DE0181110FC081E08093BD
:10129000DE011092BE0109C0803C09F4A6CF883C53
:1012A00009F4A3CF883B09F07DCFE091DF0181E015
:1012B0008E0F8093DF01F0E0E254FE4F8081809337
:1012C000BB009091DF018091DE0129C08091240252
:1012D0008093BB0085EC8093BC0064CF9091230287
:1012E00080912202981758F5E091230281E08E0F39
:1012F00080932302F0E0EE5FFD4F8081E9CFE09123
:10130000230281E08E0F809323028091BB00F0E0E6
:10131000EE5FFD4F80839091230280912202981707
:10132000C8F285E8D8CFE091230281E08E0F809348
:1013300023028091BB00F0E0EE5FFD4F808380913F
:10134000330281115CCF81E08093320284EA809382
:10135000BC001092340226CF80910002803230F41B
:10136000E0910002F0E0E052FE4F10820E9449043A
:101370006091000270E0E0913902F0913A0280EE53
:1013800091E009951092000230CF1092010237CF00
:10139000E4E5F3E01382128288EE93E0A0E0B0E08F
:1013A00084839583A683B7832FE231E03183208342
:1013B0002FEF3FEF35872487E4EAF3E013821282B0
:1013C00084839583A683B78381E491E091838083AE
:1013D0000895789484B5826084BD84B5816084BDAD
:1013E00085B5826085BD85B5816085BD80916E00C3
:1013F000816080936E0010928100809181008260F4
:101400008093810080918100816080938100809130
:101410008000816080938000809191008260809341
:101420009100809191008160809391008091900063
:101430008160809390008091C10084608093C1009E
:101440008091C10082608093C1008091C100816061
:101450008093C1008091C30081608093C30080911C
:10146000C00082608093C0008091C2008160809340
:10147000C20080917A00846080937A0080917A0023
:10148000826080937A0080917A00816080937A00F4
:1014900080917A00806880937A00109253031092B2
:1014A0003102109230028091D70081608093D70082
:1014B00080EA8093D80089B5806189BD89B5826052
:1014C00089BD09B400FEFDCF61E070E080E090E0EE
:1014D0000E9492038091D8008F7C80618093D80015
:1014E0008091E000807F8093E0008091E1008E7E1B
:1014F0008093E1008DE08093E20061E00E943C0374
:1015000061E083E10E943C0361E084E10E943C03CE
:1015100060E08EE00E943C0360E08FE00E943C03AC
:1015200061E084E10E940E0343E1E42E41E0F42EE9
:101530000BE111E0C3E2D1E0C880229661E08C2D7E
:101540000E943C03D701DC90B2E0EB0EF11C61E09D
:101550008D2D0E943C03F80180810E5F1F4F60E0DB
:101560000E943C0360E08C2D0E940E0360E08D2DF4
:101570000E940E03F1E0CB32DF07F1F68FE00E940C
:10158000E502019719F08EE00E94E5028CE380935A
:10159000BA0080E591E090933C0280933B028CE599
:1015A00091E090933A02809339021092380210929F
:1015B000370210923602109235021092340281E006
:1015C000809333021092320261E082E00E940E03A7
:1015D00061E083E00E940E038091B9008E7F8093CA
:1015E000B9008091B9008D7F8093B90088E4809321
:1015F000B80085E48093BC0081E090E00E946B0518
:10160000082F10E0D0E0C0E034E1F32EC8010C2E2A
:1016100002C0969587950A94E2F780FF09C0FE0103
:10162000EE0FFF1FED5DFE4F61E080810E940E0313
:1016300083E090E00E946B058F9DB0011124072E7E
:10164000000C880B990B0E9492032196C530D1059E
:10165000E9F610924503E5E4F2E080E091E0DF0175
:101660009C011D9221503040E1F786E095E0909377
:101670003E0280933D028DE695E090934002809378
:101680003F028FEF9FEF90936103809360038091FF
:101690004503882309F455C061E08DE00E940E03E4
:1016A00061E083E10E940E038091460290E0813266
:1016B000910509F04EC080914702A82FA053BB0BA3
:1016C0007D01BD0190E080E04AE00E94C2048AE909
:1016D00091E00E94B50493E2C92E91E0D92ED0E0AA
:1016E000C0E087010C2E02C0169507950A94E2F718
:1016F00001701127B801110F880B990B4AE00E9465
:10170000C2048AE991E00E94B504F6018081F2E00A
:10171000CF0ED11C602F0E940E032196C430D1053C
:1017200001F71092450364E170E080E090E00E94D0
:10173000920360E08DE00E940E0360E083E10E946E
:101740000E03E0E0F0E0EF2B09F4A1CF0E940000CF
:101750009ECF8332910509F05BC020904702312C67
:101760000BE111E0D0E0C0E0C1010C2E02C0969563
:1017700087950A94E2F780FF3CC0CE010E94930552
:1017800085E090E00E946B05882E912CB12CA12C55
:101790008FB7F8944090410250904202609043020B
:1017A000709044028FBFC12CD12C7601D8018C914E
:1017B0000E94E502892B29F58FB7F894C090410269
:1017C000D0904202E0904302F09044028FBFC418D0
:1017D000D508E608F708C814D904EA04FB0430F376
:1017E000FE01EE0FFF1FED5DFE4F60E080810E9465
:1017F0000E0321960E5F1F4FC430D10509F0B4CF00
:1018000090CF62E370E080E090E00E949203E3CF2B
:1018100084329105B1F40091470210E0D0E0C0E0BD
:10182000C8010C2E02C0969587950A94E2F780FFB6
:1018300003C0CE010E9493052196C430D10581F7E3
:1018400070CF8735910509F06CCF80914702609188
:10185000480290E00E94350C64CFF999FECF92BD0A
:1018600081BDF89A992780B50895262FF999FECF62
:101870001FBA92BD81BD20BD0FB6F894FA9AF99AAD
:101880000FBE01960895A1E21A2EAA1BBB1BFD01F3
:101890000DC0AA1FBB1FEE1FFF1FA217B307E4074F
:1018A000F50720F0A21BB30BE40BF50B661F771FA7
:1018B000881F991F1A9469F7609570958095909587
:1018C0009B01AC01BD01CF010895EE0FFF1F0590F4
:1018D000F491E02D0994AEE0B0E0E1E7FCE00C9477
:1018E0001A0F0D891E8986E08C831A8309838FEF76
:1018F0009FE79E838D83AE01475E5F4F6F89788D32
:10190000CE0101960E948E0C2F813885020F131F85
:10191000F80110822E96E4E00C94360FABE0B0E0B4
:10192000E4E9FCE00C940C0F7C013B018A01FC0112
:1019300017821682838181FFC8C1CE0101965C01A6
:10194000F7019381F30193FD859193FF81913F010D
:10195000882309F453C1853239F493FD859193FFAF
:1019600081913F01853229F4B70190E00E947E0EFB
:10197000E7CF912C212C312CFFE1F31538F08B327D
:1019800011F190F4803209F1833229F137FC3CC027
:1019900020ED280F2A3050F536FE20C08AE0989EB0
:1019A000200D1124922E06C08D3291F0803371F7F4
:1019B000689430F8F30193FD859193FF81913F0185
:1019C0008111DACF21C0689431F8689432F8F2CFEF
:1019D000689433F8EFCF689434F8ECCFEAE02E9EA9
:1019E000200D1124222E689435F8E4CF8E3229F48C
:1019F00036FC04C1689436F8DDCF8C3619F468944F
:101A000037F8D8CF8836B1F2982F9F7D9554933010
:101A1000E0F08336A1F18337C1F1833509F063C06B
:101A20002801F2E04F0E511CF801C080D180692DD1
:101A300070E036FC02C06FEF7FEFC6010E94680EB7
:101A40004C01689437F882010AC00C5F1F4FFFE316
:101A5000F98388248394912C6501E89437F833FE48
:101A60002DC0522C8114910471F5552009F468CFD2
:101A7000B70180E290E00E947E0E5A94F6CFF80102
:101A8000808189830E5F1F4FE4CF2801F2E04F0E63
:101A9000511CF801C080D180692D70E036FC02C075
:101AA0006FEF7FEFC6010E94730E4C018201D5CF0C
:101AB000B70180E290E00E947E0E2A942814190457
:101AC00009F0B0F7CECFF60137FC859137FE819152
:101AD0006F01B70190E00E947E0E51105A94F1E020
:101AE0008F1A9108BFCF843619F0893609F077C074
:101AF000F80137FE6BC060817181828193810C5F38
:101B00001F4FF32DFF763F2E97FF09C090958095CC
:101B1000709561957F4F8F4F9F4F689437F82AE0FB
:101B200030E0A5010E94AE0EC82ECA188C2C432CA2
:101B300036FE0CC0E89440F8C91440F434FE05C0E9
:101B400032FC03C0F32DFE7E4F2E892C44FE95C03F
:101B5000FE01EC0DF11D8081803309F087C0242D3A
:101B6000297E422E842D8870582E43FC95C040FE5D
:101B70008FC09C2C821418F42C0C922C981844FEC4
:101B800091C0B70180E390E00E947E0E42FE09C042
:101B900088E790E041FE02C088E590E0B7010E942E
:101BA0007E0EC91408F48AC0CA94D12C9FEFC91ABA
:101BB000D90ACA0CDB1CF60182916F01B70190E0D3
:101BC0000E947E0EAC14BD04B1F74FCF60817181CD
:101BD000072E000C880B990B0E5F1F4F92CFD32C52
:101BE000E894D4F82AE030E0853739F1232D297FB5
:101BF000D22E8F3601F148F48835A9F0F70186819D
:101C000097812B96E2E10C94280F803749F08837B2
:101C1000A9F7D4FE02C06894D2F820E130E00DC0EC
:101C20006894D4F8F6CF34FE03C0822F8660D82E95
:101C300020E132E002C028E030E0F801D7FE0FC01A
:101C400060817181828193810C5F1F4FA5010E9489
:101C5000AE0EC82ECA183D2CE89437F867CF6081C5
:101C6000718190E080E00E5F1F4FF0CF42FC02C018
:101C7000839478CF8394839475CF842D867809F4E8
:101C800071CFF6CFB70180E290E00E947E0E839480
:101C90008214C0F3512C73CF522C5818821408F4BC
:101CA0006ECFF8CF842D867809F47BCF8BE241FE8E
:101CB00080E247FC8DE2B70190E071CFB70180E38D
:101CC00090E00E947E0E9A946CCF8FEF9FEF99CF99
:101CD000FC010590615070400110D8F780959095F7
:101CE0008E0F9F1F0895FC016150704001900110FC
:101CF000D8F7809590958E0F9F1F08950F931F938F
:101D0000CF93DF93182F092FEB018B8181FD09C041
:101D10001FEF0FEF812F902FDF91CF911F910F9128
:101D2000089582FF14C02E813F818C819D812817E8
:101D300039073CF4E881F981CF01019699838883C2
:101D400010838E819F8101969F838E83E3CFE885E8
:101D5000F985812F0995892BA1F3DACFFA01AA27FA
:101D6000283051F1203181F1E8946F936E7F6E5FDE
:101D70007F4F8F4F9F4FAF4FB1E03ED0B4E03CD08C
:101D8000670F781F891F9A1FA11D680F791F8A1F6F
:101D9000911DA11D6A0F711D811D911DA11D20D0D6
:101DA00009F468943F912AE0269F11243019305D90
:101DB0003193DEF6CF010895462F4770405D419381
:101DC000B3E00FD0C9F7F6CF462F4F70405D4A33CE
:101DD00018F0495D31FD4052419302D0A9F7EACF96
:101DE000B4E0A6959795879577956795BA95C9F7C5
:101DF00000976105710508959B01AC010A2E0694B8
:101E00005795479537952795BA95C9F7620F731F70
:101E1000841F951FA01D08952F923F924F925F92AD
:101E20006F927F928F929F92AF92BF92CF92DF92EA
:101E3000EF92FF920F931F93CF93DF93CDB7DEB74F
:101E4000CA1BDB0B0FB6F894DEBF0FBECDBF0994E3
:101E50002A88398848885F846E847D848C849B843A
:101E6000AA84B984C884DF80EE80FD800C811B8148
:101E7000AA81B981CE0FD11D0FB6F894DEBF0FBE77
:0A1E8000CDBFED010895F894FFCFE7
:101E8A00FFFFFFFF00E100000000000000C18081A9
:101E9A000000000B000A0008000600020003000D03
:101EAA00000C000A00090007000500000000003EBF
:101EBA0002C5035F0254027F0263026F0200000040
:101ECA0000A1049604B2046C048F047C046D0443DC
:101EDA00535042207265636569766564206279743D
:101EEA00652D2D3E20436861723A202725732720ED
:101EFA002009204865783A2025237820092044655E
:101F0A00633A202564200A00435350422073656EC9
:0E1F1A007420646174612E200A000D0A00001C
:00000001FF
